:1000000012C021C020C01FC01EC01DC01CC01BC00C
:100010001AC026C018C017C016C015C014C013C01F
:1000200012C011C010C011241FBECFE5D4E0DEBF46
:10003000CDBF20E0A0E6B0E001C01D92A637B20718
:10004000E1F7D9D009C1DCCF2FB7F89460916C00EB
:1000500070916D0080916E0090916F002FBF089598
:100060001F920F920FB60F9211248F939F93AF930D
:10007000BF9380916C0090916D00A0916E00B09143
:100080006F000196A11DB11D80936C0090936D00CF
:10009000A0936E00B0936F00BF91AF919F918F912D
:1000A0000F900FBE0F901F9018950F931F93CF9333
:1000B000DF93EC0188819981009721F08E3D9105B5
:1000C00029F020C08EED90E099838883BDDF0091F8
:1000D00068001091690020916A0030916B00DC018A
:1000E000CB01801B910BA20BB30B0A97A105B105A5
:1000F00068F0AADF609368007093690080936A00DB
:1001000090936B001982188283E001C080E0DF9138
:10011000CF911F910F9108950F931F93CF93DF936A
:10012000EC0188819981009721F08232914029F079
:1001300020C082E291E09983888386DF0091640089
:10014000109165002091660030916700DC01CB01C1
:10015000801B910BA20BB30B0A97A105B10568F0A8
:1001600073DF6093640070936500809366009093E2
:1001700067001982188283E001C080E0DF91CF918F
:100180001F910F9108950F931F93CF93DF93EC016D
:1001900088819981009721F08737914029F021C00B
:1001A00087E791E0998388834FDF00916000109189
:1001B00061002091620030916300DC01CB01801B63
:1001C000910BA20BB30B84369105A105B10568F024
:1001D0003BDF6093600070936100809362009093B6
:1001E00063001982188283E001C080E0DF91CF9123
:1001F0001F910F9108958BEF81BB8FEF87BB8CEF21
:1002000084BB84E082BB18BA83E085BB83B783607C
:1002100083BF82E882BF1092750010927400109222
:100220007300109272001092710010927000A895E5
:100230009FE088E10FB6F894A89581BD0FBE91BDEF
:10024000789484E790E031DF82E790E065DF80E733
:0C02500090E099DFA895F5CFF894FFCF5F
:00000001FF
