S016000053696D706C655F616C61726D31302E73726563D7
S113000012C02CC02BC02AC029C028C027C026C0BB
S113001025C031C023C022C021C020C01FC01EC0C3
S11300201DC01CC01BC011241FBECFE5D4E0DEBF21
S1130030CDBF10E0A0E6B0E0EAE7F2E002C0059030
S11300400D92A836B107D9F720E0A8E6B0E001C0C8
S11300501D92AE37B207E1F7D9D00DC1D1CF2FB77A
S1130060F89460917400709175008091760090917D
S113007077002FBF08951F920F920FB60F9211248D
S11300808F939F93AF93BF93809174009091750069
S1130090A0917600B09177000196A11DB11D8093C7
S11300A0740090937500A0937600B0937700BF918D
S11300B0AF919F918F910F900FBE0F901F90189545
S11300C00F931F93CF93DF93EC018881998100975D
S11300D021F08F3D910529F020C08FED90E09983A8
S11300E08883BDDF0091700010917100209172002F
S11300F030917300DC01CB01801B910BA20BB30B7D
S11301000A97A105B10568F0AADF609370007093A7
S1130110710080937200909373001982188283E0B7
S113012001C080E0DF91CF911F910F9108950F934B
S11301301F93CF93DF93EC0188819981009721F07D
S11301408332914029F020C083E291E0998388832F
S113015086DF00916C0010916D0020916E0030914B
S11301606F00DC01CB01801B910BA20BB30B0A9730
S1130170A105B10568F073DF60936C0070936D00A6
S113018080936E0090936F001982188283E001C0FF
S113019080E0DF91CF911F910F9108950F931F93EA
S11301A0CF93DF93EC0188819981009721F0883700
S11301B0914029F021C088E791E0998388834FDF3B
S11301C0009168001091690020916A0030916B00E1
S11301D0DC01CB01801B910BA20BB30B8436910580
S11301E0A105B10568F03BDF609368007093690076
S11301F080936A0090936B001982188283E001C097
S113020080E0DF91CF911F910F91089510926000CB
S1130210109261008BEF81BB8FEF87BB8CEF84BBA7
S113022084E082BB18BA83E085BB83B7836083BF55
S113023082E882BF10927D0010927C0010927B00B5
S113024010927A001092790010927800A8959FE09D
S113025088E10FB6F894A89581BD0FBE91BD78943E
S11302608CE790E02DDF8AE790E061DF88E790E09B
S10D027095DFA895F5CFF894FFCFB1
S10B027A000002010102020070
S9030000FC
