S016000053696D706C655F616C61726D31302E73726563D7
S113000012C02CC02BC02AC029C028C027C026C0BB
S113001025C05EC023C022C021C020C01FC01EC096
S11300201DC01CC01BC011241FBECFE5D4E0DEBF21
S1130030CDBF10E0A0E6B0E0E4E0F3E002C005903C
S11300400D92AC36B107D9F720E0ACE6B0E001C0C0
S11300501D92A238B207E1F706D152C1D1CFCF9297
S1130060DF92EF92FF920F931F93CF93DF93EC01F4
S113007080E0E82E80E0F82E8E010F5F1F4F6E01A6
S113008088E0C80ED11CE199FECFC70131D1F80137
S113009081938F01833231F0FFEFEF1AFF0A0C15C1
S11300A01D0589F7CE01DF91CF911F910F91FF902C
S11300B0EF90DF90CF9008952FB7F8946091780077
S11300C07091790080917A0090917B002FBF089500
S11300D01F920F920FB60F9211248F939F93AF9399
S11300E0BF938091780090917900A0917A00B091AB
S11300F07B000196A11DB11D809378009093790037
S1130100A0937A00B0937B00BF91AF919F918F91A0
S11301100F900FBE0F901F9018950F931F93CF93BE
S1130120DF93EC0188819981009721F0843F910548
S113013029F020C084EF90E099838883BDDF00918B
S11301407400109175002091760030917700DC01E5
S1130150CB01801B910BA20BB30B0A97A105B10530
S113016068F0AADF60937400709375008093760042
S1130170909377001982188283E001C080E0DF91B8
S1130180CF911F910F9108950F931F93CF93DF93F6
S1130190EC0188819981009721F08833914029F0FE
S11301A020C088E391E09983888386DF0091700002
S11301B0109171002091720030917300DC01CB0129
S11301C0801B910BA20BB30B0A97A105B10568F034
S11301D073DF60937000709371008093720090934A
S11301E073001982188283E001C080E0DF91CF910F
S11301F01F910F9108950F931F93CF93DF93EC01F9
S113020088819981009721F08D38914029F021C08F
S11302108DE891E0998388834FDF00916C00109101
S11302206D0020916E0030916F00DC01CB01801BCA
S1130230910BA20BB30B84369105A105B10568F0AF
S11302403BDF60936C0070936D0080936E0090931D
S11302506F001982188283E001C080E0DF91CF91A2
S11302601F910F91089511BA8FEF87BB80EF84BB64
S11302708FE782BB18BA8FE085BB989903C01092B0
S1130280600003C081E08093600080916000813051
S113029031F484E690E0E3DE8093640003C080B32D
S11302A08093630083B7836083BF82E882BF109228
S11302B081001092800010927F0010927E001092B4
S11302C07D0010927C00A8959FE088E10FB6F89419
S11302D0A89581BD0FBE91BD789480E890E01DDFA4
S11302E08EE790E051DF8CE790E085DFA895F5CFAD
S11302F0E199FECF9FBB8EBBE09A99278DB30895F9
S1070300F894FFCF9B
S10F0304010000000000000000000000E8
S9030000FC
